:020000040800F2
:1000000000800220D50E0008F1160008F316000843
:10001000F5160008F7160008F916000800000000A1
:10002000000000000000000000000000E1B1010835
:10003000FB1600080000000071B20108FD16000860
:10004000250F0008250F0008250F0008250F0008C0
:10005000250F0008250F0008250F0008250F0008B0
:10006000250F0008250F0008250F0008250F0008A0
:10007000250F0008250F0008250F0008250F000890
:10008000250F0008250F0008250F0008250F000880
:10009000250F0008250F0008250F0008250F000870
:1000A000250F000811170008250F0008250F00086C
:1000B000250F0008250F000800000000250F00088C
:1000C000250F0008250F0008250F0008250F000840
:1000D000250F00081D17000829170008351700080C
:1000E00041170008250F0008000000000000000074
:1000F0000000000000000000000000000000000000
:1001000000000000250F000800000000250F000877
:10011000250F000800000000250F00080000000067
:10012000250F0008250F0008250F0008250F0008DF
:10013000250F0008250F0008250F0008000000000B
:10014000250F0008250F0008250F0008250F0008BF
:10015000250F0008250F0008250F0008250F0008AF
:10016000250F0008250F0008250F000800000000DB
:1001700000000000250F000800000000250F000807
:10018000250F0008250F0008250F0008250F00087F
:04019000250F00082F
:1001A00010B5054C237833B9044B13B10448AFF3B1
:1001B00000800123237010BDBC0800200000000057
:1001C0007418020808B5034B1BB103490348AFF389
:1001D000008008BD00000000C0080020741802085C
:1001E00010F8012B11F8013B012A28BF9A42F7D0E1
:1001F000D01A7047034613F8012B002AFBD1181AB6
:1002000001387047000000000000000000000000FE
:1002100001F0FF01102A2BDB10F0070F08D010F8B7
:10022000013B013A8B422DD010F0070F42B3F6D1BB
:10023000F0B441EA012141EA014122F007047FF0D4
:1002400000070023F0E80256083C85EA010586EA2B
:10025000010685FA47F5A3FA87F586FA47F6A5FA67
:1002600087F68EB9EED1F0BC01F0FF0102F0070273
:1002700032B110F8013B013A83EA010313B1F8D11E
:100280000020704701387047002D06BF35460338FF
:10029000073815F0010F07D1013015F4807F02BF38
:1002A000013015F4C03F0130F0BC0138704700BF89
:1002B00081F0004102E000BF83F0004330B54FEA17
:1002C00041044FEA430594EA050F08BF90EA020F84
:1002D0001FBF54EA000C55EA020C7FEA645C7FEA17
:1002E000655C00F0E2804FEA5454D4EB5555B8BF3A
:1002F0006D420CDD2C4480EA020281EA030382EAAB
:10030000000083EA010180EA020281EA0303362D3C
:1003100088BF30BD11F0004F4FEA01314FF4801C0F
:100320004CEA113102D0404261EB410113F0004F21
:100330004FEA03334CEA133302D0524263EB4303D8
:1003400094EA050F00F0A780A4F10104D5F1200E76
:100350000DDB02FA0EFC22FA05F2801841F10001D1
:1003600003FA0EF2801843FA05F359410EE0A5F1A5
:1003700020050EF1200E012A03FA0EFC28BF4CF0D6
:10038000020C43FA05F3C01851EBE37101F000458C
:1003900007D54FF0000EDCF1000C7EEB00006EEB99
:1003A0000101B1F5801F1BD3B1F5001F0CD3490823
:1003B0005FEA30004FEA3C0C04F101044FEA44527A
:1003C00012F5800F80F09A80BCF1004F08BF5FEA01
:1003D000500C50F1000041EB045141EA050130BDE1
:1003E0005FEA4C0C404141EB0101013C28BFB1F5F3
:1003F000801FE9D291F0000F04BF01460020B1FA3E
:1004000081F308BF2033A3F10B03B3F120020CDA10
:100410000C3208DD02F1140CC2F10C0201FA0CF0EE
:1004200021FA02F10CE002F11402D8BFC2F1200C53
:1004300001FA02F120FA0CFCDCBF41EA0C01904009
:10044000E41AA2BF01EB0451294330BD6FEA040452
:100450001F3C1CDA0C340EDC04F11404C4F120023D
:1004600020FA04F001FA02F340EA030021FA04F34F
:1004700045EA030130BDC4F10C04C4F1200220FAA6
:1004800002F001FA04F340EA0300294630BD21FAE4
:1004900004F0294630BD94F0000F83F4801306BFAA
:1004A00081F480110134013D4EE77FEA645C18BF9E
:1004B0007FEA655C29D094EA050F08BF90EA020F35
:1004C00005D054EA000C04BF1946104630BD91EA2D
:1004D000030F1EBF0021002030BD5FEA545C05D130
:1004E0004000494128BF41F0004130BD14F580046F
:1004F0003CBF01F5801130BD01F0004545F0FE41E3
:1005000041F470014FF0000030BD7FEA645C1ABF17
:10051000194610467FEA655C1CBF0B46024650EA4E
:10052000013406BF52EA033591EA030F41F400217A
:1005300030BD00BF90F0000F04BF0021704730B500
:100540004FF4806404F132044FF000054FF00001D5
:1005500050E700BF90F0000F04BF0021704730B596
:100560004FF4806404F1320410F0004548BF40426B
:100570004FF000013EE700BF42004FEAE2014FEAC0
:1005800031014FEA02701FBF12F07F4393F07F4F9B
:1005900081F06051704732F07F4208BF704793F09E
:1005A0007F4F04BF41F40021704730B54FF46074B1
:1005B00001F0004521F000411CE700BF50EA0102B4
:1005C00008BF704730B54FF000050AE050EA01025D
:1005D00008BF704730B511F0004502D5404261EBCD
:1005E00041014FF4806404F132045FEA915C3FF40E
:1005F000D8AE4FF003025FEADC0C18BF03325FEAAB
:10060000DC0C18BF033202EBDC02C2F1200300FA5B
:1006100003FC20FA02F001FA03FE40EA0E0021FA80
:1006200002F11444BDE600BF70B54FF0FF0C4CF46E
:10063000E06C1CEA11541DBF1CEA135594EA0C0F20
:1006400095EA0C0F00F0DEF82C4481EA030621EA5B
:100650004C5123EA4C5350EA013518BF52EA033596
:1006600041F4801143F4801338D0A0FB02CE4FF048
:100670000005E1FB02E506F00042E0FB03E54FF078
:100680000006E1FB03569CF0000F18BF4EF0010E70
:10069000A4F1FF04B6F5007F64F5407404D25FEA6C
:1006A0004E0E6D4146EB060642EAC62141EA55511F
:1006B0004FEAC52040EA5E504FEACE2EB4F1FD0C61
:1006C00088BFBCF5E06F1ED8BEF1004F08BF5FEADF
:1006D000500E50F1000041EB045170BD06F0004691
:1006E00046EA010140EA020081EA0301B4EB5C043E
:1006F000C2BFD4EB0C0541EA045170BD41F4801136
:100700004FF0000E013C00F3AB8014F1360FDEBF5A
:10071000002001F0004170BDC4F10004203C35DA36
:100720000C341BDC04F11404C4F1200500FA05F3B9
:1007300020FA04F001FA05F240EA020001F000425A
:1007400021F0004110EBD37021FA04F642EB0601D0
:100750005EEA430E08BF20EAD37070BDC4F10C04FA
:10076000C4F1200500FA04F320FA05F001FA04F2BE
:1007700040EA020001F0004110EBD37041F10001AA
:100780005EEA430E08BF20EAD37070BDC4F12005B5
:1007900000FA05F24EEA020E20FA04F301FA05F21D
:1007A00043EA020321FA04F001F0004121FA04F2C5
:1007B00020EA020000EBD3705EEA430E08BF20EA95
:1007C000D37070BD94F0000F0FD101F000464000CF
:1007D00041EB010111F4801F08BF013CF7D041EA51
:1007E000060195F0000F18BF704703F00046520055
:1007F00043EB030313F4801F08BF013DF7D043EA26
:100800000603704794EA0C0F0CEA135518BF95EADB
:100810000C0F0CD050EA410618BF52EA4306D1D162
:1008200081EA030101F000414FF0000070BD50EA81
:10083000410606BF1046194652EA430619D094EA0B
:100840000C0F02D150EA013613D195EA0C0F05D1F5
:1008500052EA03361CBF104619460AD181EA030149
:1008600001F0004141F0FE4141F470014FF0000001
:1008700070BD41F0FE4141F4780170BD70B54FF09C
:10088000FF0C4CF4E06C1CEA11541DBF1CEA13551C
:1008900094EA0C0F95EA0C0F00F0A7F8A4EB0504FE
:1008A00081EA030E52EA03354FEA013100F08880F5
:1008B0004FEA03334FF0805545EA131343EA1263BE
:1008C0004FEA022245EA111545EA10654FEA002673
:1008D0000EF000419D4208BF964244F1FD0404F52C
:1008E000407402D25B084FEA3202B61A65EB030588
:1008F0005B084FEA32024FF480104FF4002CB6EB45
:10090000020E75EB030E22BFB61A754640EA0C00C4
:100910005B084FEA3202B6EB020E75EB030E22BF04
:10092000B61A754640EA5C005B084FEA3202B6EB45
:10093000020E75EB030E22BFB61A754640EA9C0004
:100940005B084FEA3202B6EB020E75EB030E22BFD4
:10095000B61A754640EADC0055EA060E18D04FEA92
:10096000051545EA16754FEA06164FEAC30343EA32
:1009700052734FEAC2025FEA1C1CC0D111F4801FFF
:100980000BD141EA00014FF000004FF0004CB6E7F8
:1009900011F4801F04BF01430020B4F1FD0C88BF97
:1009A000BCF5E06F3FF6AFAEB5EB030C04BFB6EBA2
:1009B000020C5FEA500C50F1000041EB045170BD95
:1009C0000EF0004E4EEA113114EB5C04C2BFD4EBC2
:1009D0000C0541EA045170BD41F480114FF0000E46
:1009E000013C90E645EA060E8DE60CEA135594EAC2
:1009F0000C0F08BF95EA0C0F3FF43BAF94EA0C0FC5
:100A00000AD150EA01347FF434AF95EA0C0F7FF439
:100A100025AF104619462CE795EA0C0F06D152EA8D
:100A200003353FF4FDAE1046194622E750EA410671
:100A300018BF52EA43067FF4C5AE50EA41047FF482
:100A40000DAF52EA43057FF4EBAE12E74FF0FF3CE7
:100A500006E000BF4FF0010C02E000BF4FF0010CB8
:100A60004DF804CD4FEA410C7FEA6C5C4FEA430C31
:100A700018BF7FEA6C5C1BD001B050EA410C0CBF80
:100A800052EA430C91EA030F02BF90EA020F0020E2
:100A9000704710F1000F91EA030F58BF994208BF49
:100AA00090422CBFD8176FEAE37040F00100704706
:100AB0004FEA410C7FEA6C5C02D150EA013C07D15D
:100AC0004FEA430C7FEA6C5CD6D152EA033CD3D0A8
:100AD0005DF8040B704700BF8446104662468C46A2
:100AE0001946634600E000BF01B5FFF7B7FF0028D5
:100AF00048BF10F1000F01BD4DF808EDFFF7F4FFFE
:100B00000CBF012000205DF808FB00BF4DF808ED88
:100B1000FFF7EAFF34BF012000205DF808FB00BFAB
:100B20004DF808EDFFF7E0FF94BF012000205DF8CD
:100B300008FB00BF4DF808EDFFF7CEFF94BF012082
:100B400000205DF808FB00BF4DF808EDFFF7C4FF7B
:100B500034BF012000205DF808FB00BF4FEA410CC4
:100B60007FEA6C5C02D150EA013C0AD14FEA430CA7
:100B70007FEA6C5C02D152EA033C02D14FF00000E4
:100B800070474FF0010070474FEA410212F5001222
:100B900015D211D56FF47873B3EB625212D94FEAC4
:100BA000C12343F0004343EA505311F0004F23FAAE
:100BB00002F018BF404270474FF00000704750EA03
:100BC000013005D111F0004008BF6FF000407047C0
:100BD0004FF00000704700BF53B94AB9002908BF61
:100BE00000281CBF4FF0FF314FF0FF3000F070B90C
:100BF000ADF1080C6DE904CE00F006F8DDF804E074
:100C0000DDE9022304B070472DE9F047089E0D4648
:100C100004460F46002B4AD18A42944665D9B2FA5F
:100C200082F343B102FA03FCC3F120029F4020FA91
:100C300002F217439C404FEA1C4E1FFA8CF5B7FB9B
:100C4000FEF1220C0EFB117742EA074201FB05F090
:100C500090420AD91CEB020201F1FF3780F01C819F
:100C6000904240F2198102396244121AA4B2B2FBD6
:100C7000FEF00EFB102244EA024400FB05F5A542FB
:100C80000AD91CEB040400F1FF3280F00781A54271
:100C900040F204816444023840EA0140641B0021B0
:100CA0001EB1DC400023C6E90043BDE8F0878B425B
:100CB00008D9002E00F0ED800021C6E900050846A5
:100CC000BDE8F087B3FA83F1002949D1AB4202D3E2
:100CD000824200F2F880841A65EB03020120174675
:100CE000002EE2D0C6E90047DFE702B9FFDEB2FA24
:100CF00082F3002B40F090808A1A4FEA1C471FFABB
:100D00008CFE0121B2FBF7F507FB1520220C42EA0D
:100D100000420EFB05F0904208D91CEB020205F1DF
:100D2000FF3802D2904200F2CB804546121AA4B29C
:100D3000B2FBF7F007FB102244EA02440EFB00FE70
:100D4000A64508D91CEB040400F1FF3202D2A645E7
:100D500000F2BB801046A4EB0E0440EA05409FE77A
:100D6000C1F120078B4022FA07FC4CEA030C05FA7C
:100D700001F420FA07F3FD404FEA1C492343B5FB79
:100D8000F9F81FFA8CFE09FB18551C0C44EA0544BF
:100D900008FB0EF5A54202FA01F200FA01F00BD9A8
:100DA0001CEB040408F1FF3A80F08880A54240F271
:100DB0008580A8F102086444641B9DB2B4FBF9F37A
:100DC00009FB134445EA044403FB0EFEA64508D97B
:100DD0001CEB040403F1FF356CD2A6456AD9023B33
:100DE000644443EA0843A3FB0295A4EB0E04AC421F
:100DF000C846AE4656D353D056B1B0EB080264EBAA
:100E00000E0404FA07F7CA40CC401743C6E9007441
:100E100018460021BDE8F087C3F1200102FA03FC67
:100E200020FA01F225FA01F19D402A434FEA1C47BE
:100E30001FFA8CFEB1FBF7F007FB1015110C41EA0D
:100E4000054100FB0EF58D4204FA03F408D91CEBB2
:100E5000010100F1FF382FD28D422DD902386144B3
:100E6000491B92B2B1FBF7F507FB151142EA0142AB
:100E700005FB0EF1914208D91CEB020205F1FF3887
:100E800016D2914214D9023D6244521A45EA0041F9
:100E900038E73146304608E73946E6E61046FBE6D5
:100EA0004845A9D2B9EB020865EB0C0E013BA3E75C
:100EB0004546EAE72B4694E74046D1E7D0467BE734
:100EC000023D624432E708460AE76444023842E7DA
:100ED000704700BFDFF834D004F07EFB002103E050
:100EE0000B4B5B58435004310A480B4B42189A4253
:100EF000F6D30A4A02E0002342F8043B084B9A4228
:100F0000F9D31CF0BBF800F0EFF9FEE700800220F7
:100F100084D3020800000020BC080020BC08002088
:100F20000C9B0020FEE700007FB5182200216846D8
:100F30001BF0F7FF1848194900230422426103837C
:100F40000122C0E90013C0E90233C0E909230361AB
:100F5000C26180F82030C36280F83030436380F88B
:100F6000383004F0A7FB08B100F0EEF90C4A0A484B
:100F70000623CDE900230B4A0023CDE9023269465E
:100F80000422CDE9042304F069FC08B100F0DCF987
:100F900007B05DF804FB00BFD80800200000045033
:100FA0000200300400007F4010B5044686B01422D1
:100FB000002101A81BF0B5FF22680D4B9A4214D105
:100FC00003F17043A3F5F8330A48DA6C42F4005297
:100FD000DA64DB6C03F400530093009B0F220B23B5
:100FE00001A9CDE9012304F0A3FE06B010BD00BFA6
:100FF00000000450000800482DE9F04114228AB096
:101000000DEB020000211BF08CFF434B434DDA6CCB
:10101000434E42F00102DA64DA6C02F001020092FF
:10102000009ADA6C42F00402DA64DA6C02F004022C
:101030000192019ADA6C42F00202DA64DA6C02F090
:1010400002020292029ADA6C42F08002DA64DA6CEE
:1010500002F080020392039ADA6C42F00802DA642A
:10106000DB6C03F008030493284600224CF2C40111
:10107000049B04F0A1FF002230464FF4A07104F05D
:101080009BFF00244CF2C403012705A92846CDE9A3
:1010900005374FF00308CDE9074404F049FE082363
:1010A00005A920480794CDE9053804F041FE8023C6
:1010B00005A93046CDE90538079404F039FE4FF410
:1010C0008072022305A94FF09040CDE90523CDE9B8
:1010D0000744099404F02CFE4FF4A07305A9304690
:1010E000CDE90537CDE9074404F022FE0E4B079405
:1010F0004FF48051CDE90513284605A904F018FEE8
:1011000022460521282004F07BFD282004F0AAFDBA
:101110000AB0BDE8F08100BF0010024000040048A2
:1011200000080048001C00480000111008B51248D3
:10113000124A134BC0E9002300230122C0E9023206
:10114000C0E90433C0E90633036204F047FF08B185
:1011500000F0FAF80848002104F091FF08B100F00F
:10116000F3F80548002104F0B0FF18B1BDE80840CD
:1011700000F0EAB808BD00BF40090020005400405C
:10118000EC9C901010B5044686B01422002101A8F2
:101190001BF0C7FE22680F4B9A4219D14FF44072E0
:1011A0001223CDE9012301210323CDE903130423F5
:1011B0000DEB03010848059304F0BAFD074B9A6D47
:1011C00042F400129A659B6D03F400130093009B98
:1011D00006B010BD0054004000040048001002405A
:1011E000F0B5B1B014244422002105A81BF099FEEB
:1011F0002246002168461BF094FE6822002116A8B2
:101200001BF08FFE05F01CF8354AD2F8903023F021
:101210001803C2F8903000206023CDE90C030225AA
:10122000059428230124072705A8CDE90F54CDE90B
:101230001237CDE9145507940B94119405F07AF9FF
:1012400000B1FEE7CDE902000F260323049004213C
:101250006846CDE9006305F017FC00B1FEE7214BBD
:1012600016934FF080532D934FF480732F934FF0CC
:1012700080632A932C931823CDE91E00CDE91937FA
:10128000209023904FF0887316A8CDE91744CDE93C
:101290001B551D9305F05CFD024600B1FEE74FF0C3
:1012A000807105F0D1F84FF4007004F0D9FF0446C6
:1012B00000B1FEE705F07CFC4FF47A73B0FBF3F06D
:1012C00004F0F0FC042004F001FD05F0CFFE2246FE
:1012D00031464FF0FF3004F093FC31B0F0BD00BF59
:1012E000001002404760060008B504F099F9FFF7C6
:1012F00077FFFFF781FEFFF717FEFFF717FF00F0FC
:1013000025F800F09DF800F0C5F800F0E9F800F0CD
:10131000C9FA00F0FFFA00F037FB00F053FB00F0D1
:1013200057FC00F067F8FFF701FF19F039FC19F0DE
:1013300053FCFEE70268034B9A4201D104F080B9E6
:10134000704700BF002C0140FEE700000B480C4A2C
:1013500008B5FF23C0E9002300230122C0E90223CE
:10136000C0E90423C0E90633036204F0D7FF18B1D3
:10137000BDE80840FFF7E8BF08BD00BF8C090020AA
:10138000001000A070B5044686B01422002101A808
:101390001BF0C7FD2268154B9A4225D103F120436B
:1013A00003F5003302261A6D42F480721A651B6D34
:1013B00003F480730093009B0325C0230A2401A932
:1013C0004FF09040CDE90136CDE9045404F0B0FC73
:1013D00040F60343CDE9013605480594002301A9F1
:1013E000CDE9033504F0A4FC06B070BD001000A0E8
:1013F00000040048054808B5054B036005F03EFEB3
:1014000018B1BDE80840FFF79FBF08BDD80900200C
:10141000000806500268094B9A4282B00CD103F1D1
:101420007043A3F57E33DA6C42F48022DA64DB6C1D
:1014300003F480230193019B02B07047000806501B
:101440000A480B4A08B50023C0E900237F21FF2288
:10145000C0E90212C0E90433C0E9063305F0CCFE4E
:1014600018B1BDE80840FFF76FBF08BDE8090020CC
:10147000002800400268054B9A4201BF044AD2F896
:10148000903043F40043C2F8903070470028004089
:10149000001002401048114A08B54FF48273C0E9A9
:1014A000002300234FF44072C0E902324FF480223F
:1014B000C0E906230722C0E90433C0E90833C0E9C4
:1014C0000B2383620823436305F0DCFE18B1BDE8FB
:1014D0000840FFF739BF08BD0C0A0020003001406A
:1014E0001048114A08B54FF48273C0E90023002365
:1014F0004FF44072C0E902324FF48022C0E9062363
:101500000722C0E90433C0E90833C0E90B23836232
:101510000823436305F0B6FE18B1BDE80840FFF7A5
:1015200013BF08BD700A0020003C004070B504469F
:1015300088B01422002103A81BF0F3FC2368264A7C
:10154000934224D1254B1A6E42F480521A661B6EC8
:1015500003F480530193019B022648F220030325E4
:10156000052403A94FF09040CDE90336CDE9065498
:1015700004F0DEFB3023CDE903360023CDE9053549
:101580001748079403A904F0D3FB08B070BD154AAF
:101590009342FAD1114B14489A6D42F400429A6575
:1015A0009B6D03F400430293029B02264FF4E05329
:1015B0000325062403A9CDE90336CDE9065404F03A
:1015C000B7FB1023CDE903360023CDE90535079499
:1015D00003A94FF09040D6E70030014000100240D0
:1015E00000040048003C004000080048214B07B5BB
:1015F0001A6E42F001021A661A6E02F0010200929F
:10160000009A9A6D42F080529A659B6D03F0805368
:1016100001930320019B04F0E1FA002211466FF0D0
:101620000B0004F0EDFA002211466FF00A0004F0FE
:10163000E7FA002211466FF0090004F0E1FA0022F7
:1016400011466FF0040004F0DBFA002211466FF03F
:10165000030004F0D5FA00220F216FF0010004F01E
:10166000CFFA00220F214FF0FF3003B05DF804EBFA
:1016700004F0C6BA0010024010B5014688B000223E
:10168000192004F0BDFA192004F0ECFA144B154CA3
:101690001A6E42F400621A661B6E03F40063029332
:1016A00001A903A8029B05F0ADFA05F099FA0E4BCB
:1016B000236040F2E733E3600C4BB0FBF3F00138FA
:1016C0000023606020462361A36006F063F820B920
:1016D000204605F03BFF08B010BD0120FBE700BF2E
:1016E00000100240D40A0020002C014040420F00AC
:1016F0007047FEE7FEE7FEE7FEE7704708B51AF021
:101700009BFF012803D0BDE8084019F0E3BD08BDE8
:10171000014805F04DBF00BFD40A0020014806F083
:10172000C9BA00BFBC0B0020014806F0C3BA00BF15
:101730003C0C0020014806F0BDBA00BFBC0C0020E4
:1017400008B54FF4805004F03DFCBDE808404FF46C
:10175000005004F037BC0120704708B51BF088FC2E
:10176000162303604FF0FF3008BD08B51BF080FC66
:1017700016230360FEE770B50D4614460E46731B34
:101780009C4201DC204670BDAFF3008006F8010BDF
:10179000F5E770B50D4614460E46731B9C4201DCFE
:1017A000204670BD16F8010BAFF30080F5E74FF04F
:1017B000FF3070474FF400534B600020704701200A
:1017C00070470020704700000B4A116810B50346AF
:1017D00009B90A491160106809490A4C0344091BF8
:1017E0008B4206D91BF044FC0C2303604FF0FF3002
:1017F00010BD1360FCE700BF200B0020109B0020F1
:1018000000800220000400000368B3F1804F82B022
:101810000CD103F504339A6D42F001029A659B6D79
:1018200003F001030093009B02B07047064A934205
:10183000FAD1064B9A6D42F002029A659B6D03F055
:1018400002030193019BEFE70004004000100240F7
:1018500010B5044686B01422002101A81BF061FBDC
:101860002368B3F1804F0BD108210223CDE9011386
:1018700009480123059301A904F05AFA06B010BDE6
:10188000064A9342FAD102234FF40072CDE90123B4
:101890000348059301A9EFE7000400480004004055
:1018A0000008004810B500248AB01C22214603A875
:1018B000CDE9004402941BF034FB15484FF08043FF
:1018C000C0E90034C0E902440461846105F092FF7C
:1018D00008B1FFF739FD0E4800946946029406F0FE
:1018E0006DF808B1FFF730FD00236022CDE9032336
:1018F00007480593042203A9079305F0E3FF08B105
:10190000FFF722FD0248FFF7A3FF0AB010BD00BF9A
:10191000240B002010B500248AB01C22214603A805
:10192000CDE9004402941BF0FCFA1548154B046104
:10193000C0E90034C0E90244846105F05BFF08B1EE
:10194000FFF702FD0E4800946946029406F036F84F
:1019500008B1FFF7F9FC00236022CDE903230C2234
:10196000074805930DEB0201079305F0ABFF08B1A3
:10197000FFF7EAFC0248FFF76BFF0AB010BD00BF9B
:10198000700B0020000400400C480D4A08B54FF4CD
:10199000E133C0E9002300230C22C0E90233C0E98F
:1019A0000523C0E907330361436206F0B2FC18B1B6
:1019B000BDE80840FFF7C8BC08BD00BFBC0B002055
:1019C000003801400C480D4A08B54FF4E133C0E936
:1019D000002300230C22C0E90233C0E90523C0E93B
:1019E00007330361436206F094FC18B1BDE8084078
:1019F000FFF7AABC08BD00BF3C0C0020004400401B
:101A0000F0B5044689B01422002103A81BF089FA1E
:101A10002368424A934221D1414B1A6E42F48042DC
:101A20001A661B6E03F480430093009B4FF4C06062
:101A30000223CDE9030303A907234FF090400324B9
:101A4000CDE9064304F074F925200022052104F0B5
:101A5000D7F8252004F006F909B0F0BD314A9342C9
:101A600022D12F4B9A6D42F400329A659B6D03F49C
:101A7000003301930F22019B0223CDE903230321AD
:101A80000723CDE906134FF0904003A904F050F965
:101A900000220521262004F0B3F8262004F0E2F805
:101AA000262004F0EDF8D7E71F4A9342D4D11C4B0F
:101AB0001E489A6D42F480229A659B6D03F4802340
:101AC0000293022703260725029B03A9042300246F
:101AD000CDE90337CDE9066504F02AF9302314482F
:101AE000079503A9CDE90337CDE9054604F020F9B0
:101AF0004FF400530F48079503A9CDE90337CDE90B
:101B0000054604F015F922460521272004F078F84F
:101B1000272004F0A7F82720C3E700BF00380140C2
:101B2000001002400044004000480040000C004803
:101B3000000800480004004808B51F4A03689342A3
:101B400010D102F558424FF09040136E23F48043B9
:101B500013664FF4C06104F0AFF92520BDE80840DA
:101B600004F08EB8154A93420CD102F5E6324FF0DC
:101B70009040936D23F4003393650F2104F09CF99A
:101B80002620EBE70E4A934214D102F5E4320D48C9
:101B9000936D23F480239365042104F08DF90A48A2
:101BA000302104F089F909484FF4005104F084F918
:101BB0002720D3E708BD00BF0038014000440040A3
:101BC00000480040000C004800080048000400489D
:101BD0000B480C4A08B50823C0E900230023022261
:101BE000C0E90223C0E90423C0E90633036204F01C
:101BF00091FA18B1BDE80840FFF7A6BB08BD00BFC9
:101C00003C0D00200068004010B5044686B0142248
:101C1000002101A81BF085F922680E4B9A4217D1CA
:101C20004FF4C0520223CDE9012303210A23CDE959
:101C300004134FF0904001A904F07AF8064B9A6D16
:101C400042F080629A659B6D03F080630093009B75
:101C500006B010BD00680040001002400B4B43600E
:101C60000B4B83600B4BC3600B4B03610B4B43610E
:101C70000B4B83610B4BC3610B4B03620B4B4362FA
:101C80000B4B83620B4BC362704700BF7936000871
:101C9000F9360008293700086D4400088945000816
:101CA000C548000825490008014A0008E14A000823
:101CB000314B0008814B0008074B4360074B8360A2
:101CC000074BC360074B0361074B4361074B8361BD
:101CD000074BC361704700BF254D000845530008FE
:101CE000D54D0008C54E00085D4F0008055000089E
:101CF0006950000837B504460D46224822491BF0BA
:101D0000E5F9204815F0DCFE1E4A83B204210220CA
:101D100015F018FF1B4815F0D3FE1A4A83B20421B0
:101D2000022016F05BF92389042B27D1284607F0FF
:101D30004FFD0146019005F10C0008F0FFFE019AED
:101D40001249034605460F481BF078F80D4815F078
:101D5000B7FE0C4A83B20121022015F0F3FE0948B8
:101D600015F0AEFE074A83B20121022016F036F9C3
:101D700007492A4604F130001BF060F8002003B048
:101D800030BD00BF7448002090180208BC1802083B
:101D9000F318020870B506460D46384838491BF05E
:101DA00095F9364815F08CFE344A83B2042102209E
:101DB00015F0C8FE314815F083FE304A83B2042185
:101DC000022016F00BF93389032B13D12D4B93F816
:101DD0004240012C2AD195F81255012D24D0022D14
:101DE0000AD0B5FA85F35B09274A284906F1300085
:101DF0001BF024F8002415E0254920481BF066F963
:101E00001E4815F05DFE1D4A83B21021284615F0CC
:101E100099FE1A4815F054FE184A83B2102128463C
:101E200016F0DCF8204670BD0223DDE7042C05D156
:101E3000184906F130001BF049F9DBE7072C01D106
:101E40001549F6E7082C01D11449F2E714490B486B
:101E50001BF03CF9094815F033FE084A83B2102103
:101E6000022015F06FFE054815F02AFE034A83B2E2
:101E70001021022016F0B2F80124D3E774480020A4
:101E8000FD180208E11700204E1902086519020822
:101E90002C190208A99A02086F190208921902085F
:101EA000B619020810B51C4904461C481BF00EF96F
:101EB0001A4815F005FE194A83B20421022015F0D4
:101EC00041FE164815F0FCFD144A83B2042102209D
:101ED00016F084F82389032B10D1114B93F841306D
:101EE000023B072B16D8DFE803F0040B0D0F11158A
:101EF00015130C4904F130001BF0E8F8002010BD68
:101F00000949F7E70949F5E70949F3E70949F1E71D
:101F10000949EFE70120F2E7E519020874480020BB
:101F2000E11700204F9B0208141A02081B1A02082E
:101F30002A1A02083F1A02085D1A020838B50F4C27
:101F40000F49054620461BF0C1F8204615F0B8FDA4
:101F5000224683B20421022015F0F4FD204615F03C
:101F6000AFFD224683B20421022016F037F805495E
:101F700005F130001BF0AAF8002038BD744800209D
:101F8000791A0208955902082DE9F043814687B075
:101F900043480C4643491BF099F8414815F090FD21
:101FA0003F4A83B20421022015F0CCFD3C4815F0D5
:101FB00087FD3B4A83B20421022016F00FF8B9F8DE
:101FC0000830032B50D1204607F002FC064601469C
:101FD00004F10C0008F0B2FD334903463246804656
:101FE0002F481AF02BFF2E4815F06AFD2C4A83B2B9
:101FF0000121022015F0A6FD294815F061FD82257A
:1020000083B2274A01210220754315F0E7FF6219C8
:1020100092F850300C2B29D005F1510392F89270B0
:1020200092F89100234409F13009059367B907F04C
:102030006BFC059B00901D49424648461AF0FEFE87
:10204000384607B0BDE8F08307F05EFC05F1B20248
:10205000923522442C44CDE900040292059B144998
:10206000424648461AF0EAFE0027E9E711490C48C3
:1020700032461AF0E3FE0A4815F022FD084A83B200
:102080001021022015F05EFD054815F019FD044AE7
:1020900083B21021022015F0A1FF0127D0E700BF75
:1020A00074480020AB1A0208DA1A0208021B020860
:1020B0000F1B02082C1B02082DE9F04105460E46B5
:1020C0001A481B49174698461BF000F8174815F0A8
:1020D000F7FC164A83B20421022015F033FD1348A1
:1020E00015F0EEFC114A83B20421022015F076FFB0
:1020F0002B8A792B05D1D6F84037304619680CF079
:102100000FFEEC69322C0ED00AD8173C022C0AD9EB
:1021100043463A4631462846BDE8F04109F0E0BE64
:102120003A3C042CF3E70120BDE8F081744800201C
:10213000631B02082DE9F04706460D462A482B4945
:1021400017461C461AF0C2FF274815F0B9FC264A6C
:1021500083B20421022015F0F5FC234815F0B0FCF1
:10216000214A83B20421022015F038FFF369122BB3
:1021700031D0DFF87CA0DFF8708022463946304647
:1021800007F060F9E3898146FBB12589022D1CD156
:10219000514640461AF09AFF404615F091FC4246DF
:1021A00083B22946284615F0CDFC404615F088FC40
:1021B000424683B22946284615F010FF6289E3891A
:1021C0003A442946284615F027FFB9F1010FD4D02B
:1021D0001020BDE8F08723463A4629463046BDE840
:1021E000F0470AF01BB900BF74480020931B020897
:1021F000C21B02082DE9F0472449DFF898A0244EBD
:102200008146234817461C461AF060FF204815F007
:1022100057FC1F4A83B20421022015F093FC1C488E
:1022200015F04EFC1A4A83B20421022015F0D6FEA6
:1022300022463946484607F005F9E3898046FBB156
:102240002589022D1CD1514630461AF03FFF3046F9
:1022500015F036FC324683B22946284615F072FC4A
:10226000304615F02DFC324683B22946284615F03B
:10227000B5FE6289E3893A442946284615F0CCFE2A
:10228000B8F1010FD4D01020BDE8F087DF1B0208A1
:10229000744800200E1C02082DE9F84F804689463C
:1022A0002D482E49DFF8B8A02B4E15461C461AF0D3
:1022B0000DFF294815F004FC274A83B204210220AF
:1022C00015F040FC244815F0FBFB234A83B204219F
:1022D000022015F083FE22462946404607F0B2F858
:1022E000E389074693B3B4F808B0BBF1020F2DD1D0
:1022F000514630461AF0EAFE304615F0E1FB324610
:1023000083B25946584615F01DFC304615F0D8FBEF
:10231000324683B25946584615F060FE6289E38919
:102320002A445946584615F077FE6389E289E95CEC
:10233000202905D1012A82BF013302F1FF329BB26D
:10234000D9F8C405E91802301AF0C8FE012FC2D02E
:102350000820BDE8F88F00BF744800202B1C02083D
:102360005B1C020870B538480C46384916461D46B5
:102370001AF0ACFE344815F0A3FB334A83B20421B3
:10238000022015F0DFFB304815F09AFB2E4A83B28D
:102390000421022015F022FE2D4B93F84130092B29
:1023A00038D16889E98930440DF0DBF929490246C2
:1023B000054625481AF042FD234815F081FB02210D
:1023C00083B2214A084615F0BDFB1F4815F078FB83
:1023D000022183B21C4A084615F000FE012D1BD1D4
:1023E0001D4919481AF072FE174815F069FB0221C1
:1023F00083B2154A084615F0A5FB134815F060FB9B
:10240000022183B2104A084615F0E8FD40F202238B
:10241000A4F81435082070BD10490B481AF056FE78
:10242000094815F04DFB022183B2074A084615F012
:1024300089FB054815F044FB022183B2024A084695
:1024400015F0CCFD0023E3E7744800206C1C020863
:10245000E11700209E1C0208D61C0208FE1C020880
:10246000A0F13003DBB2092B05D9A0F16103052BE4
:1024700004D85738C3B200200B707047A0F1410355
:10248000052B01D83738F5E700230120F4E70000D9
:1024900073B505460C46274827491AF017FE25480C
:1024A00015F00EFB234A83B20421022015F04AFBEB
:1024B000204815F005FB1F4A83B20421022015F0C5
:1024C0008DFD2B89032B32D1204607F081F901467F
:1024D000019004F10C0008F031FB019A822303FB08
:1024E0000243064693F850300C2B15D1134911487E
:1024F0001AF0A4FC0F4815F0E3FA0E4A83B201214A
:10250000022015F01FFB0B4815F0DAFA094A83B2D6
:102510000121022015F062FD94F83127511E4A4234
:102520004A413346064905F130001AF087FC002085
:1025300002B070BD74480020271D02084E1D02081D
:10254000D0210208F0B5054687B04D480C464D49EC
:102550001AF0BCFD4A4815F0B3FA494A83B2042187
:10256000022015F0EFFA464815F0AAFA444A83B261
:102570000421022015F032FD2B89032B4DD1D4F814
:102580004037002B65D0197B04F10C0008F0D6FA17
:10259000D4F840273C49127B0346064638481AF0D7
:1025A0004DFC374815F08CFA354A83B201210220E0
:1025B00015F0C8FA324815F083FA314A83B2012186
:1025C000022015F00BFDD4F84047304904F10E0706
:1025D0003846FDF705FE617A10BB00290CBF0222C8
:1025E0000322931E012B05F13000294B294DDFF802
:1025F000B8E040F2C62C17D8CDF810C0002918BF9B
:10260000734655F822206189CDE90032CDE9027187
:10261000214A224933461AF011FC002007B0F0BDD0
:102620000A1E18BF0122DCE7CDF814C0002918BF2C
:10263000734661890491B4F84E1055F82220CDE913
:102640000271CDE900321649134A33461AF0F6FBFF
:10265000E3E714490A481AF039FD094815F030FA41
:10266000074A83B21021022015F06CFA044815F0D5
:1026700027FA034A83B21021022015F0AFFCCCE701
:1026800074480020A71D0208DA1D0208061E020871
:102690009F1D0208A42802080E1E0208171E020829
:1026A000361E0208571E0208A31D020838B504464C
:1026B0000D46204820491AF009FD1E4815F000FA81
:1026C0001C4A83B20421022015F03CFA194815F087
:1026D000F7F9184A83B20421022015F07FFC238900
:1026E000032B0DD1D5F8403763B1196828460CF09B
:1026F0005FFB124A1249034604F130001AF09EFBB8
:10270000002038BD0F490B481AF0E0FC094815F0CD
:10271000D7F9084A83B21021022015F013FA0548B0
:1027200015F0CEF9034A83B21021022015F056FCB1
:10273000E6E700BF744800209A1E0208C31F020883
:10274000CD1E0208D61E020838B505460C462148A3
:1027500021491AF0BBFC1F4815F0B2F91D4A83B29B
:102760000421022015F0EEF91A4815F0A9F9194ACA
:1027700083B20421022015F031FC2B89032B0FD1E9
:10278000D4F8403773B1D4F8A837204619680CF054
:102790000FFB124A1249034605F130001AF04EFBB6
:1027A000002038BD0F490B481AF090FC094815F07D
:1027B00087F9084A83B21021022015F0C3F90548B1
:1027C00015F07EF9034A83B21021022015F006FCB1
:1027D000E6E700BF74480020191F0208481F0208DE
:1027E000CD1E02084D1F020838B504460D4620488C
:1027F00020491AF06BFC1E4815F062F91C4A83B29E
:102800000421022015F09EF9194815F059F9184ACB
:1028100083B20421022015F0E1FB2389032B0DD1A3
:10282000D5F8403763B1196828460CF0C1FA124A4E
:102830001249034604F130001AF000FB002038BDB5
:102840000F490B481AF042FC094815F039F9084ABB
:1028500083B21021022015F075F9054815F030F902
:10286000034A83B21021022015F0B8FBE6E700BF4F
:10287000744800208C1F0208C11F0208CD1E0208E8
:10288000CC1F020838B504460D46204820491AF0EE
:102890001DFC1E4815F014F91C4A83B204210220C5
:1028A00015F050F9194815F00BF9184A83B20421B4
:1028B000022015F093FB2389032B0DD1D5F8403767
:1028C00063B1196828460CF073FA124A124903469C
:1028D00004F130001AF0B2FA002038BD0F490B485D
:1028E0001AF0F4FB094815F0EBF8084A83B21021FE
:1028F000022015F027F9054815F0E2F8034A83B2E3
:102900001021022015F06AFBE6E700BF74480020A2
:102910001120020842200208CD1E020849200208A8
:102920002DE9F04F074685B050480D4650491AF042
:10293000CDFB4E4815F0C4F84C4A83B20421022066
:1029400015F000F9494815F0BBF8484A83B2042154
:10295000022015F043FB3B89032B36D1D5F87436A2
:10296000002B6AD0D5F87016DFF814B1DFF8FC80C0
:1029700028460CF01DFAD5F87C363E4907F13004A4
:102980001FFA83FA0246534620461AF057FA2046A9
:10299000FDF730FC83B2039317FA80F64FF000097D
:1029A0001FFA89F39A4512D8039B95F8842603EB06
:1029B0004A039BB23033F818002A38D0B5F8C6362F
:1029C0002D4905F285621AF039FA002231E0D5F876
:1029D000743613F80940009423462246594640466F
:1029E0001AF02CFA404615F06BF8022183B24246E9
:1029F000084615F0A7F8404615F062F8022183B2A8
:102A00004246084615F0EAFA23099F2C04F00F0409
:102A100094BF30335733092C94BF3034573486F881
:102A2000303086F8314009F101090236B8E7222139
:102A3000F954104605B0BDE8F08F10490B481AF064
:102A400045FB0A4815F03CF8084A83B210210220E1
:102A500015F078F8054815F033F8044A83B21021D0
:102A6000022015F0BBFA0122E3E700BF7448002002
:102A70008A200208BA200208F1200208FB2002087E
:102A8000CA20020838B505460C46144814491AF005
:102A90001DFB124815F014F8104A83B204210220DD
:102AA00015F050F80D4815F00BF80C4A83B20421CC
:102AB000022015F093FA2B89032B0CD1D4F844177C
:102AC00020460CF075F9D4F854370649024605F152
:102AD00030001AF0B3F9002038BD00BF7448002060
:102AE000302102086321020838B505460C46164815
:102AF00016491AF0EBFA144814F0E2FF124A83B2B6
:102B00000421022015F01EF80F4814F0D9FF0E4AD8
:102B100083B20421022015F061FA2B89032B10D116
:102B2000204606F055FE014604F10C0008F006F8B8
:102B3000D4F8CC3606490246413305F130001AF08C
:102B40007DF9002038BD00BF7448002075210208BF
:102B50004356020830B5054685B018480C4618495A
:102B60001AF0B4FA154814F0ABFF144A83B20421EA
:102B7000022014F0E7FF114814F0A2FF0F4A83B2BD
:102B80000421022015F02AFA2B89032B12D12046AA
:102B900007F016FC94F8113702933823019394F848
:102BA00012370093074904F2D163002205F1300087
:102BB0001AF044F9002005B030BD00BF7448002071
:102BC0009D210208C521020810B50C4C0C49204675
:102BD0001AF07CFA204614F073FF224683B20421D7
:102BE000022014F0AFFF204614F06AFF224683B2A1
:102BF0000421022015F0F2F9102010BD74480020C5
:102C0000D62102082DE9F74F80460F467F488049BC
:102C10007E4CDFF81CB216461D461AF057FA7B4868
:102C200014F04EFF794A83B20421022014F08AFF87
:102C3000764814F045FF754A83B20421022015F04E
:102C4000CDF931462A46404606F0FCFBE989019061
:102C500079B3D8F81C30422B32D1B5F808A0BAF1BC
:102C6000020F26D1688930440CF07BFD6949024689
:102C7000814620461AF0E2F8204614F021FF224651
:102C800083B20121504614F05DFF204614F018FF76
:102C9000224683B20121504615F0A0F95E4B012275
:102CA00083F84020D7F840374A46196838460CF078
:102CB000A5F8019B012BC4D0102003B0BDE8F08F14
:102CC000443B062B00F2A080DFE803F0049E999EAF
:102CD000609999002B89022BEBD0043B032BE8D899
:102CE000DFE803F0020A1032D7F8A83768895A687B
:102CF000304406F053FDDCE7D7F8A83768895A68F6
:102D00004232F5E7688930440CF02BFD4349024616
:102D1000814620461AF092F8204614F0D1FE022196
:102D200083B22246084614F00DFF204614F0C8FE78
:102D3000022183B22246084615F050F9D7F8A83789
:102D40005B68A3F84090B4E7688930440CF009FD53
:102D500033490246814620461AF070F8204614F0A6
:102D6000AFFE022183B22246084614F0EBFE204655
:102D700014F0A6FE022183B22246084615F02EF971
:102D8000D7F8A8375B68A3F8829092E725492046D8
:102D90001AF09CF9204614F093FE224683B20121DA
:102DA000022014F0CFFE204614F08AFE224683B2A1
:102DB0000121022015F012F9B5F80890B9F1020FBF
:102DC0007FF477AF6889E98930440CF0CAFC164972
:102DD000024620461AF032F8204614F071FE2246D0
:102DE00083B20121022014F0ADFE204614F068FEEB
:102DF000224683B20121022015F0F0F859E7594626
:102E000020461AF063F9E7E70849F9E7744800201B
:102E1000FF2102082B220208E1170020502202089D
:102E20006922020882220208A7220208FB22020865
:102E3000C92202082DE9F04F87B00F460190BA4928
:102E4000BA48BA4C90461E461AF040F9B74814F0FA
:102E500037FEB64A83B20421022014F073FEB34851
:102E600014F02EFEB14A83B20421022015F0B6F808
:102E70004FF0000B4FF0100A41460198324606F021
:102E8000E1FAF1890290002900F04381019BDB699E
:102E90004B2B35D1B6F80890B9F1020F1BD17089D0
:102EA00040440CF05EFCA2490246204619F0C6FFE1
:102EB000204614F005FE224683B24946484614F0E7
:102EC00041FE204614F0FCFD224683B2022102207E
:102ED00015F084F81DE1B9F1030F40F01A817089F3
:102EE00040440CF03EFC93490246204619F0A6FFF0
:102EF000204614F0E5FD022183B222460846DEE7B3
:102F00004C2B40F02981B6F80890B9F1020F3DD161
:102F1000708940440CF025FC87490246054620464E
:102F200019F08CFF204614F0CBFD224683B24946AF
:102F3000484614F007FE204614F0C2FD224683B234
:102F40004946484615F04AF8D7F8441738460BF07A
:102F50002FFF854200F0DD80D7F8443777492A46B5
:102F6000724819F06BFF714814F0AAFD6F4A83B2E2
:102F70001021022014F0E6FD6C4814F0A1FD6B4A0C
:102F800083B21021022015F029F884E0A9F1030989
:102F9000B9F1040F00F2BD80DFE809F0030B12A6BF
:102FA000BF00708940440CF0DCFB65498346024653
:102FB0009BE7708940440CF0D4FB6249024694E7D9
:102FC0008D1EC5F34F09CB454D4617D05E495B4674
:102FD0004A46204619F032FF204614F071FD224681
:102FE00083B21021022014F0ADFD204614F068FDDC
:102FF000224683B21021022014F0F0FF53492A46E2
:10300000204619F01BFF204614F05AFD022183B21E
:103010002246084614F096FD204614F051FD022188
:1030200083B22246084614F0D9FFD7F85437AB4292
:1030300048D247492A4693E7708900EB4200404452
:103040000DF11601837840780393FFF709FA039B8B
:1030500038B34FF0040A013293B2994534D9BAF12A
:10306000040FE9D13B4931481AF030F82F4814F0E9
:1030700027FD2E4A83B21021022014F063FD2B4855
:1030800014F01EFD294A83B21021022014F0A6FF7D
:103090000023C7F850374FF0040A504607B0BDE888
:1030A000F08F0DF117011846FFF7DAF90028D0D19B
:1030B0009DF816109DF8173003EB0113D7F84C1745
:1030C0008B54C8E70022C7E7BAF1040FCAD0022127
:1030D000D7F84C27C7F850574B46084614F09CFFCA
:1030E000029B012BD9D1C7E607F259754022002176
:1030F000284619F016FF7089F1890023A7F89A373E
:103100002A46404406F04AFB284606F01BFB87F897
:103110005807BAF1040FE3D1BFE7708940440CF0BF
:1031200020FBA7F89A07F4E7182302087448002048
:1031300045230208722302089D230208CD230208BA
:10314000242402085224020881240208CE24020802
:10315000442502080C2502080949204619F0B6FF4B
:10316000204614F0ADFC224683B21021022014F058
:10317000E9FC204614F0A4FC224683B21021A6E606
:10318000912502082DE9F04F824685B05B488846BC
:103190005B4917461E4619F099FF584814F090FCF9
:1031A000564A83B20421022014F0CCFC534814F098
:1031B00087FC524A83B20421022014F00FFFDAF890
:1031C0001C304D2B00F097804C4CDFF854B100259B
:1031D0004FF0100939463246504606F033F9F1896E
:1031E0000190002957D03389022B25D170893844AA
:1031F0000CF0B7FA012805461CD0424B424A02287F
:1032000018BF134641492A46204619F017FE2046AA
:1032100014F056FC022183B22246084614F092FCB8
:10322000204614F04DFC224683B20221022014F005
:10323000D5FE30E0364BE5E7032B41D170893844A9
:103240000CF08FFA0146029040460BF0FDFD012D77
:10325000029A034626D101460290404603920BF0A3
:1032600021FEDDE902322B49204619F0E7FD204618
:1032700014F026FC224683B20121022014F062FCE5
:10328000204614F01DFC224683B20121022014F0D6
:10329000A5FE4FF04009019B012B9BD0484605B08D
:1032A000BDE8F08F032D09D10146029040460392FC
:1032B0000BF024FEDDE902321749D5E75946A3E7B2
:1032C000042BE8D1708938440CF04BFA13490246BC
:1032D000204619F0B3FD204614F0F2FB224683B2DB
:1032E0000121022014F02EFC204614F0E9FB2246B6
:1032F00083B201219AE74FF01009CFE7744800200C
:10330000FF250208E5250208B42502082A2602083E
:10331000C4250208572602089D260208192702081C
:10332000DE2602082DE9F04F4349DFF81CA1434C8B
:10333000DFF818B195B08146404817461D4619F090
:10334000C5FE3E4814F0BCFB3C4A83B20421022077
:1033500014F0F8FB394814F0B3FB384A83B2042167
:10336000022014F03BFE00262A463946484606F065
:1033700069F8EB890090002B40D0B5F80880B8F1CF
:10338000020F1DD16889194638440CF0EAF92C491E
:1033900002460646204619F051FD204614F090FBE7
:1033A000224683B20121404614F0CCFB204614F0A3
:1033B00087FB224683B20121022014F00FFE1DE09C
:1033C000B8F1030F1AD101939EBB4122314603A8E5
:1033D00019F0A7FD019B69891A4639440DF10D00CA
:1033E00019F07CFE0DF10D0006F0ACF901280CD1AE
:1033F0006989EA891348394419F070FE009B012B52
:10340000B2D0102015B0BDE8F08F5946204619F013
:103410005DFE204614F054FB224683B210210220A8
:1034200014F090FB204614F04BFB224683B210218F
:10343000C2E75146EAE700BF4C2702087448002063
:1034400076270208E1170020C32702089027020808
:1034500038B500250446012380F85D3580F85E55B7
:103460004022294600F25F5019F05BFDA4F8A055F8
:10347000C4F8A45584F8A85538BD00002DE9F74FCD
:1034800083460D465E485F495D4C90461F4619F0E5
:103490001DFE5B4814F014FB594A83B2042102203C
:1034A00014F050FB564814F00BFB554A83B204212C
:1034B000022014F093FD41463A46584605F0C2FFFB
:1034C000F9890190002946D03E89022E4AD128462A
:1034D0004FF0010AFFF7BCFF85F85DA57889F989EF
:1034E00040440CF03EF9484902468146204619F016
:1034F000A5FC204614F0E4FA224683B23146304659
:1035000014F020FB204614F0DBFA224683B2314649
:10351000304614F063FD3D4985F8ACA585F85C950F
:10352000204619F0D3FD204614F0CAFA224683B291
:103530003146304614F006FB204614F0C1FA22460C
:1035400083B23146304614F049FD002385F85E35DC
:103550003823A5F8A035019B012BACD0402003B047
:10356000BDE8F08F032E06D1788905F25F52404402
:1035700006F014F9EFE7042E1ED1788940440CF0D0
:10358000F0F8234902460646204619F057FC20462B
:1035900014F096FA022183B22246084614F0D2FAB9
:1035A000204614F08DFA022183B22246084614F018
:1035B00015FDC5F8A465CEE7052ECCD17889404429
:1035C0000CF0CFF8134902460646204619F036FCA7
:1035D000204614F075FA224683B20121022014F02D
:1035E000B1FA204614F06CFA224683B2012102207F
:1035F00014F0F4FC002385F8A86585F85D35AAE78A
:1036000074480020002802082A2802083F280208DF
:10361000622802087828020810B5144C1449204684
:1036200019F054FD204614F04BFA224683B20421CF
:10363000022014F087FA204614F042FA22460D4C7C
:1036400083B20421022014F0C9FC204607F062F87E
:10365000FF2384F8F53484F8F93484F8FD3484F8D1
:10366000013584F8053584F8093510BD744800200B
:10367000B42802083010002038B51A4C1A49054603
:10368000204619F023FD204614F01AFA224683B290
:103690000421022014F056FA204614F011FA2246B2
:1036A000124C83B20421022014F098FC204607F04B
:1036B00001F8FF2384F8F53484F8F93484F8FD34F4
:1036C00084F8013584F8053584F8093549232360E9
:1036D000074B636005F274600649BDE8384019F095
:1036E000F5BC00BF74480020DC2802083010002020
:1036F000482F02081D5202080A4A137A13F0FD0FE0
:1037000005D10D2801D10323137200207047032B2C
:1037100004D10A28F9D1012010727047012BF0D092
:1037200000BFF2E7301000202DE9F341B0F810801F
:10373000A14E424600F1100405460F469F48A0499D
:1037400019F07CFB9D4814F0BBF99C4A83B204211C
:10375000022014F0F7F9994814F0B2F9974A83B2AD
:103760000421022014F03AFC9348214607F0A2F805
:10377000002840F00E8106F22C7006F03BFFB8F1F5
:10378000640F12D1AB7C002B40F003810122009228
:1037900021460422304606F0D3F887483A462146AF
:1037A00002B0BDE8F04106F03DB9A8F16503292B50
:1037B00000F25286DFE813F036001F022702AE0245
:1037C0003B038903A70369032E0321031404ED03BC
:1037D00004042404C503D9035A04340455045006D0
:1037E00068049604C404C404D204F704180536001F
:1037F000E9042A00FB050E0609061C0631064206EE
:1038000026058005B605CC05D805EA05AB7C002B5E
:1038100040F0BF800122009267480422214606F052
:103820008FF8BAE7B8F1800F08D196F8C826012AB8
:1038300004D06449614819F001FB98E0AA7CBAB948
:10384000614B86F80E25B8F1800F83F8432083F88A
:10385000442083F8452083F8462001D1FFF7DCFEA1
:103860006868002101F094FE204606F0CFF894E746
:10387000531E2E2B00F28D80DFE813F02F002F0057
:103880002F002F002F002F002F002F002F002F00C0
:103890002F002F002F002F002F002F002F002F00B0
:1038A0002F002F002F002F002F002F002F002F00A0
:1038B0002F002F002F0072009300B000BB00C40047
:1038C000D000D900E600F30000010D0149014D01CF
:1038D0005601610169017601B4010A2A88BF3B4B98
:1038E00096F80E6584BF01211970EEB93849334846
:1038F00019F0A4FA314814F0E3F8022183B22F4AF8
:10390000084614F01FF92D4814F0DAF8022183B2AA
:103910002A4A084614F062FB2748009633460422E0
:10392000214606F01FF838E72A49244819F0CEFB53
:10393000224814F0C5F8214A83B20121022014F074
:1039400001F91E4814F0BCF81C4A83B20121022080
:1039500014F044FB1E23AB74204606F057F81CE716
:1039600096F80E35CBB91C49144819F0AFFB134833
:1039700014F0A6F8114A83B21021022014F0E2F8E4
:103980000E4814F09DF80D4A83B21021022014F065
:1039900025FB012002B0BDE8F081204606F036F894
:1039A000FBE6002386F83D370348009303221323E8
:1039B000214605F0C5FFF0E63010002074480020D5
:1039C000032902083C290208E1170020E017002023
:1039D0006A29020895290208DB290208002386F8D3
:1039E0002F37B548009304222823214605F0A8FF6D
:1039F000D3E600230093B04811230322214605F0AB
:103A00009FFFCAE6012386F8303700230093AA48B7
:103A10002B230422214605F093FFBEE600230093EA
:103A2000A5480D230422214605F08AFFB5E6A34BE5
:103A3000A148022283F841200023009303223B2364
:103A4000214605F07DFFA8E69C4B9B48042283F8A5
:103A500041200023009303223D23214605F070FFFF
:103A60009BE6964B9448052283F84120002300935F
:103A700003223D23214605F063FF8EE68F4B8E48DF
:103A8000062283F841200023009303223D23214690
:103A900005F056FF81E68A4B1B78F3B189498A48C5
:103AA00019F014FB884814F00BF8874A83B20121FF
:103AB000022014F047F8844814F002F8824A83B2D6
:103AC0000121022014F08AFA002300937A483E2351
:103AD0000322214605F034FF5FE67C497A4819F05D
:103AE000F5FA794813F0ECFF774A83B201210220FE
:103AF00014F028F8744813F0E3FF734A83B20121ED
:103B0000022014F06BFA204605F080FF45E62046BF
:103B100005F07CFF41E6002300936748322303222F
:103B2000214605F00DFF38E66868012101F030FDFF
:103B3000002240F6B831204605F030FF2DE6002384
:103B40005D4800930422214605F00CFF25E65B4BFF
:103B50005948072283F842200023009303223C2384
:103B6000214605F0EDFE18E6544B93F84660CEB1C1
:103B70005749554819F0AAFA534813F0A1FF524A81
:103B800083B20121022013F0DDFF4F4813F098FFAC
:103B90004D4A83B20121022014F020FA204605F09C
:103BA00035FFFAE501254B49474883F8455019F0A0
:103BB0008DFA454813F084FF294683B2424A022019
:103BC00013F0C0FF404813F07BFF294683B23E4A02
:103BD000022014F003FA324641F28831204605F003
:103BE000DDFEDAE501230093334800230422214659
:103BF00005F0A6FED1E5AB7C002B7FF4CAAE2046D3
:103C000005F0F8FEC9E5AD7C3DB92B4800951323BE
:103C10000322214605F094FEBFE5012D0FD196F851
:103C2000B1351BB9204605F0E5FEB6E5002300934B
:103C3000214812230222214605F082FEADE5022D25
:103C40007FF4A7AE96F81035002B49D196F8B3351E
:103C5000F3B121491C4819F039FA1B4813F030FF21
:103C6000194A83B20121284613F06CFF164813F05D
:103C700027FF154A83B20121284614F0AFF901232A
:103C800000930D4812230322214605F059FE84E5D6
:103C900012490D4819F01AFA0B4813F011FF0A4A9D
:103CA00083B20121284613F04DFF074813F008FFA7
:103CB000054A83B2012169E630100020E117002097
:103CC000E0170020092A0208744800202E2A020862
:103CD0005A2A0208A02A0208CF2A0208042B020846
:103CE000B449B54819F0F2F9B34813F0E9FEB24A05
:103CF00083B20121284613F025FFAF4813F0E0FE00
:103D0000AD4A83B20121284614F068F9204605F037
:103D100071FE42E5AA7C002A7FF43BAED6F8C4359A
:103D2000188810284FF0010343D01BD8013882B205
:103D3000072A3FF62EAE07283FF62BAE01A252F817
:103D400020F000BFC73D0008833D000893390008FC
:103D5000933D00089339000893390008933900080F
:103D6000A33D0008402838D080283ED020287FF48A
:103D700010AE009391480F230422214605F0E0FD88
:103D80000BE500938D480B230422214605F0D8FD56
:103D900003E5009389480C230422214605F0D0FD59
:103DA000FBE4009385480D230422214605F0C8FD5D
:103DB000F3E486F82C278148009304220E23214641
:103DC00005F0BEFDE9E486F82C377C480093032219
:103DD0000E23214605F0B4FDDFE400937748152358
:103DE0000422214605F0ACFDD7E400937348372345
:103DF0000422214605F0A4FDCFE4AB7C002B7FF428
:103E0000C8AD012300936D481C230422214605F010
:103E100097FDC2E4AB7C002B7FF4BBAD0123009384
:103E2000664816230222214605F08AFDB5E4AA7CE5
:103E30003AB90092614814230222214605F080FD20
:103E4000ABE4012A16D1B6F81026B6F8C8359A4266
:103E500003D196F80C36012B08D100230093574864
:103E600014230322214605F06BFD96E4204605F05D
:103E7000CDFD92E4022A7FF48CAD012300934F48DC
:103E80001923214605F05CFD87E4AA7C3AB900922B
:103E90004A4819230222214605F052FD7DE4012AF9
:103EA00008D100230093454817230222214605F03C
:103EB00047FD72E4022A7FF46CAD012300933F4872
:103EC0001423214605F03CFD67E4AB7C002B7FF416
:103ED00060AD96F8643623F00402013A012A06D94F
:103EE000DA1E012A08D8204605F084FD55E4214653
:103EF000324806F0D5F950E4072B3FF44AAD20468E
:103F000005F078FD49E4AB7C002B7FF442AD96F8D8
:103F1000643623F00402013A012A06D9DA1E012A86
:103F200008D8204605F066FD37E42146234806F010
:103F300005FA32E4072B3FF42CAD204605F05AFD7C
:103F40002BE4AB7C002B7FF424ADF37C4BB9012335
:103F5000F3741A48009303221A23214605F0F0FC5B
:103F60001BE4204605F046FD17E4AA7C002A7FF4F6
:103F700010ADF37C012B08D1F2741048009303229A
:103F80001A23214605F0DCFC07E4204605F032FD4B
:103F900003E4AB7C002B7FF4FCAC012386F82D37C7
:103FA0000648009303221623214605F0C9FCFFF7BB
:103FB000F4BB00BF352B02087448002030100020ED
:103FC000AB7C002B7FF4E5AC86F82D370123009302
:103FD000BF4816230322214605F0B2FCFFF7DDBBE4
:103FE000AB7C002B7FF4D5AC012386F83137B84881
:103FF000009303224123214605F0A2FCFFF7CDBB2D
:10400000AB7C002B7FF4C5AC86F8313701230093DD
:10401000AF4841230322214605F092FCFFF7BDBBC8
:10402000AA7C42B90092AA4836230322214605F011
:1040300087FCFFF7B2BB012A07D100224FF4FA61D7
:10404000204605F0ABFCFFF7A8BB022A7FF4A1AC29
:10405000012300939E483623214605F071FCFFF7AB
:104060009CBB204605F0C6FCFFF797BBAB7C002B42
:104070007FF48FAC0123009395482123032221462E
:1040800005F05EFCFFF789BBAB7C5BB9914A9048B9
:1040900082F84030214600930322422305F050FC71
:1040A000FFF77BBB012B0FD18A4B93F840304BB10C
:1040B00000230093864843230322214605F040FC59
:1040C000FFF76BBB84494FE4022B7FF462ACD6F858
:1040D00040377F4819680AF0EDFF204605F08AFC5A
:1040E000FFF75BBBAB7C002B7FF453ACD6F87C2690
:1040F00040F2C6239A4219D97849794818F09EFEB1
:10410000774813F0DDFC764A83B21021022013F0C9
:1041100019FD734813F0D4FC714A83B210210220B8
:1041200013F05CFF204605F065FC32E401230093A8
:1041300067484B230322214605F002FCFFF72DBB05
:10414000AB7C002B7FF425AC0123009360484C230B
:104150000322214605F0F4FBFFF71FBBAB7C43B9FC
:1041600000935B4845230322214605F0E9FBFFF756
:1041700014BB012B7FF40DAC009355484723032259
:10418000214605F0DDFBFFF708BBAB7C002B7FF47D
:1041900000AC012300934E4844230322214605F03E
:1041A000CFFBFFF7FABAAA7C32B94FF47A712046F6
:1041B00005F0F4FBFFF7F1BA012A0AD100254448C3
:1041C000009533230622214605F0BAFB3572FFF72E
:1041D000E4BA022A7FF4DDAB01224FF4FA612046F3
:1041E00005F0DCFBFFF7D9BAAB7C002B7FF4D1AB39
:1041F0000123009336482A230422214605F0A0FB20
:10420000FFF7CBBAAB7C0BBB96F81827012A16D167
:10421000D6F8191786F80D2586F81F2786F8263751
:1042200040F20112B6F81D37C6F82217A6F820276B
:10423000A6F82737204605F0E9FBFFF7AEBA20467F
:1042400086F80D3505F0D6FBFFF7A7BA013B042B26
:104250003FF69FABDFE803F0030D17212B0000238F
:1042600000931B4823230222214605F069FBFFF738
:1042700094BA00230093164822230222214605F017
:104280005FFBFFF78ABA0023009311482323032220
:10429000214605F055FBFFF780BA002300930C4838
:1042A00022230322214605F04BFBFFF776BA204676
:1042B00005F0A0FBFFF771BAAB7C9BB900930448F3
:1042C00023230322214605F03BFBFFF766BA00BF1C
:1042D00030100020E1170020512B02089C2B02080F
:1042E00074480020012B09D1002300935C4822234D
:1042F0000322214605F024FBFFF74FBA022B09D118
:1043000000230093564825230422214605F018FB7C
:10431000FFF743BA032B7FF43CAB204605F06AFB62
:10432000FFF73BBAA97C59B94E4B6868012283F864
:10433000432000F09BFE204605F068FBFFF72DBAF6
:1043400001297FF426AB204605F054FBFFF725BA80
:10435000A97C00297FF41DAB686800F0C5FE2046EB
:1043600005F048FBFFF719BAAA7C002A7FF411ABCD
:104370003C4B686883F84420114683F8432001F0E1
:1043800027F8204605F036FBFFF707BAA97C00297D
:104390007FF4FFAA96F829276868931E5A425A416B
:1043A00001F016F8204605F025FBFFF7F6B9AB7CC7
:1043B000002B7FF4EEAA0123009329483F23032218
:1043C000214605F0BDFAFFF7E8B9204605F012FBDB
:1043D000FFF7E3B9AB7C002B7FF4DBAA012300934A
:1043E0001F4840230322214605F0AAFAFFF7D5B95A
:1043F000AB7C002B7FF4CDAA012300932146184803
:104400003423062205F09CFAD6F8143714489A6F24
:10441000214605F0B9FAFFF7C0B9AB7C002B7FF459
:10442000B8AA104A0E48012382F842302146009370
:1044300003223A2305F084FAFFF7AFB9AB7C002BD7
:104440007FF4A7AA012300930548262303222146CF
:1044500005F076FAFFF7A1B903494246FFF7EAB93A
:1044600030100020E1170020DA2B020870B50D464D
:10447000064641494148144618F028FE3F4813F0CB
:104480001FFB3E4A83B20421022013F05BFB3B4832
:1044900013F016FB394A83B20421022013F09EFD6B
:1044A000B5F8D0273649354818F0C8FC334813F022
:1044B00007FB022183B2314A084613F043FB2F4821
:1044C00013F0FEFA022183B22C4A084613F086FD4F
:1044D0002388E3B92A8840F60D239A4217D1294947
:1044E000264818F0F3FD254813F0EAFA022183B2BA
:1044F000224A084613F026FB204813F0E1FA022175
:1045000083B21E4A084613F069FD022323802388E4
:10451000B5F8D027638100209A42A381E08122D997
:1045200001202388EA5C3A2A21D009D80D2A1BD021
:104530002C2A1CD0E289A3810132E281002206E00C
:104540003D2AF7D1F268A2F132014A424A410133D1
:104550009BB22380B5F8D01799420AD9002AE0D03F
:1045600023890133238170BD01220020EFE701225E
:10457000EDE70020F4E700BF072C02087448002094
:104580003D2C02085F2C02082DE9F04104460E463E
:10459000BB48BC49BC4F154618F098FDB84813F00D
:1045A0008FFAB74A83B20421022013F0CBFAB44841
:1045B00013F086FAB24A83B20421022013F00EFDF2
:1045C000B1482B46324604F1100106F0CFF858B33B
:1045D0002B4632462146384606F024F9002840F0A2
:1045E0000681E3693D2B07D12B46324639462046EA
:1045F000BDE8F041FDF7B6BEA449A14818F066FD3C
:104600009F4813F05DFA022183B29D4A084613F0D9
:1046100099FA9B4813F054FA994A83B20221022076
:1046200013F0DCFC1020E2E068681B2846D94E2815
:1046300000F282803E281AD8E369984200F03E8159
:10464000238B062BEED092498D4818F03FFD8C4805
:1046500013F036FA8A4A83B20121022013F072FA6B
:10466000874813F02DFA864A83B20121D7E7A0F1DB
:104670003F030F2BE0D801A252F823F0BD480008F9
:10468000BD48000839460008394600083946000888
:1046900039460008394600083946000839460008FE
:1046A000394600083946000839460008BD48000868
:1046B000BD4800086F480008FD4700081B28BBD80C
:1046C00001A353F820F000BF254600084347000827
:1046D000BF4700083F4700083F470008AD480008B3
:1046E0003F4700083F4700083F470008AD48000823
:1046F000AD48000839460008394600083946000828
:10470000394600083946000839460008394600088D
:104710006F4800086F48000839460008394600080D
:1047200039460008F34700086F480008F3470008BF
:1047300039460008F9470008431C7FF47DAF042088
:1047400055E0238A7E2B15D152494D4818F0BEFC06
:104750004B4813F0B5F94A4A83B20121022013F005
:10476000F1F9474813F0ACF9454A83B20121022020
:1047700013F034FC238A652B01D0802B04D1E3692C
:1047800001241BB987F80E45012030E0282BFBD10E
:1047900041493B4818F09AFC394813F091F902213D
:1047A00083B2374A084613F0CDF9354813F088F93B
:1047B000334A83B20221022013F010FCE4E73749A8
:1047C0002F4818F083FC2E4813F07AF92C4A83B254
:1047D0000121022013F0B6F9294813F071F9284A93
:1047E00083B20121022013F0F9FB48F20100BDE879
:1047F000F081E369984261D04020F8E7238A652B75
:1048000001D0802B35D1264B93F84520012483F825
:104810004640B2B100222349194883F8452018F0D8
:1048200055FC174813F04CF9154A83B22146022073
:1048300013F088F9124813F043F9114A83B2214664
:10484000B9E719490E4818F041FC0D4813F038F942
:10485000022183B20A4A084613F074F9084813F09B
:104860002FF9022183B2064A084613F0B7FB202035
:10487000BDE70548012105F0B9FD0028BCD1F6E7E8
:1048800074480020922C020830100020C42C02082A
:10489000BF2D0208012D02082A2D02084F2D020803
:1048A000E1170020752D02089C2D02082B46324688
:1048B00020460349BDE8F041FDF7FEBB082096E71E
:1048C000301000202DE9F041134C06460F462046DB
:1048D0001249154618F0FAFB204613F0F1F822466B
:1048E00083B20421022013F02DF9204613F0E8F8DA
:1048F00022460B4C83B20421022013F06FFB69683F
:10490000204604F0E3FF86462B463A4621463046D1
:10491000F446BDE8F041604774480020E52D0208E8
:104920003010002038B504460D462F482F4918F0A6
:10493000CDFB2D4813F0C4F82B4A83B2042102208A
:1049400013F000F9284813F0BBF8274A83B204217A
:10495000022013F043FB264B93F8AC272AB12288A0
:104960007A2A1CBF002283F8AC27E3681F3B0B2B7D
:104970001FD8204A42FA03F3DB071AD46D68022DD0
:1049800019D101231C492371174818F09FFB1648C1
:1049900013F096F8144A83B22946284613F0D2F849
:1049A000114813F08DF8104A83B22946284613F0B7
:1049B00015FB102016E011490B4818F087FB0A4838
:1049C00013F07EF8084A83B21021022013F0BAF8DF
:1049D000054813F075F8044A83B21021022013F041
:1049E000FDFA042038BD00BF74480020192E0208CB
:1049F00030100020FEF6FFFF4D2E0208682E020840
:104A0000F8B507460D4630483049314C18F05EFB8A
:104A10002D4813F055F82C4A83B20421022013F0DC
:104A200091F8294813F04CF8274A83B20421022058
:104A300013F0D4FA2A463946204605F06FF83B8831
:104A4000832B064606D0842B14D0662B0AD1FEF7A2
:104A5000E3FD07E01F4B40222721284604F0CCFB52
:104A600000B100261C4805F067FD194805F0F0FD6F
:104A70003046F8BD1949144818F028FB124813F0C5
:104A80001FF8114A83B20121022013F05BF80E488F
:104A900013F016F80C4A83B20121022013F09EFA9B
:104AA0002046FEF7D5FC002384F85D35012384F809
:104AB0005E3594F85835013384F85C35502204F2A1
:104AC0005C531021C9E700BF744800209A2E0208E9
:104AD00030100020E1170020E0150020C92E020848
:104AE00070B5104C05460E4620460F4918F0EEFAF8
:104AF000204612F0E5FF224683B20421022013F083
:104B000021F8204612F0DCFF224683B20421022065
:104B100013F064FA324629460448BDE8704005F0B7
:104B2000B3B800BF74480020E52E02083010002002
:104B300070B5104C05460E4620460F4918F0C6FACF
:104B4000204612F0BDFF224683B20421022012F05B
:104B5000F9FF204612F0B4FF224683B2042102205E
:104B600013F03CFA324629460448BDE8704005F08F
:104B700071BB00BF74480020142F020830100020C1
:104B80000129F8B505460F4601D00120F8BD0F4EAA
:104B900096F843407CB10E48102105F027FC002810
:104BA000F3D0002486F8447086F84340284604F089
:104BB000EFF92046EAE796F84430002BE5D00448A8
:104BC000402105F013FC0028DFD0EFE7E1170020BB
:104BD000301000202DE9F0414149424886B018F0DC
:104BE00075FA404812F06CFF022183B23D4A084634
:104BF00012F0A8FF3B4812F063FF022183B2102598
:104C00000846384A13F0EAF92A46002102A818F0AB
:104C100088F94FF004084FF40053334801930227FA
:104C200001A900240126039701F082F82F4803947C
:104C30000DEB0801CDE9018601F07AF822462B48F8
:104C4000414601F0B9F92023294803970DEB0801EB
:104C5000CDE9013401F06CF825480DEB0801CDE9F0
:104C60000156CDE9034601F063F822462946204863
:104C70001F4D01F0A1F940F2F5142021284601F062
:104C800095F9012801D1013C26D1032500241023E8
:104C900001A917480394CDE9013501F049F8202313
:104CA00001A913480394CDE9013501F041F84FF40F
:104CB000005301A90C480394CDE9013501F038F8FF
:104CC00004230A4803940DEB0301CDE9013501F0FB
:104CD0002FF806B0BDE8F0810A200AF0BFFECCE74D
:104CE000F83C02087448002000040048000C00480A
:104CF000000800487FB50023CDE903330593074B37
:104D000007484FF4805201A9CDE9012301F010F8C2
:104D1000282000F0A7FF07B05DF804FB0000211079
:104D20000004004830B5044687B0002945D000286B
:104D300043D10125224A087048708D70294612F02F
:104D400045F9204822464FF4807101F035F922469A
:104D50001D48802101F030F940231B48019301A92F
:104D6000CDE90254049400F0E3FF4FF4807315483A
:104D7000019301A900F0DCFF80231348019301A9EE
:104D800000F0D6FF114912482B464FF4E13218F0DB
:104D900055F80F4812F094FE0D4A83B229460220BE
:104DA00012F0D0FE0A4812F08BFE094982B20220AE
:104DB00013F02EF9204607B030BD0124FAE700BFFA
:104DC000BC0C002000080048000400482E3D0208EA
:104DD0007448002038B534493448354D18F076F918
:104DE000324812F06DFE022183B2304A084612F0BA
:104DF000A9FE2E4812F064FE022183B22B4A084617
:104E000013F0ECF8272000F03BFF2A4800224FF473
:104E1000807101F0D1F840F2F5144FF4805128462A
:104E200001F0C4F8012801D1013C1DD1224802F053
:104E300048FE0446E0B121491C4818F047F91B48D8
:104E400012F03EFE194A83B21021022012F07AFEBF
:104E5000164812F035FE154A83B21021022013F0D5
:104E6000BDF80124204638BD0A200AF0F7FDD4E73A
:104E7000FFF7B0FE96200AF0F1FD11490B4818F03B
:104E800025F90A4812F01CFE084A83B201210220CB
:104E900012F058FE054812F013FE044A83B20121B5
:104EA000022013F09BF8DDE7633D02087448002000
:104EB0000004004800080048BC0C0020933D020894
:104EC000C13D020838B5214D214C002280212846E1
:104ED00001F072F896200AF0C1FD1E49204618F034
:104EE000F5F8204612F0ECFD224683B201210220A3
:104EF00012F028FE204612F0E3FD224683B2012183
:104F0000022013F06BF801228021284601F054F8AA
:104F100096200AF0A3FDFFF7EDFE0F49204618F09A
:104F2000D5F8204612F0CCFD022183B22246084675
:104F300012F008FE204612F0C3FD022183B2224681
:104F4000084613F04BF8002038BD00BF00040048AD
:104F500074480020E83D0208093E020870B5254C5F
:104F60002549264E86B0204618F0B0F8204612F0AB
:104F7000A7FD224683B20121022012F0E3FD204664
:104F800012F09EFD224683B20121022013F026F882
:104F900000228021304601F00FF896200AF05EFDD5
:104FA00000254FF48052032301A93046CDE90123A7
:104FB000CDE90355059500F0BBFE282000F060FE0A
:104FC0000F49204618F082F8204612F079FD0221A0
:104FD00083B22246084612F0B5FD204612F070FD5D
:104FE000022183B22246084612F0F8FF284606B096
:104FF00070BD00BF744800202F3E02080004004826
:10500000513E020810B5154C1549204618F05EF8BF
:10501000204612F055FD224683B20121022012F0F3
:1050200091FD204612F04CFD22460E4C83B2012128
:10503000022012F0D3FF00228021204600F0BCFFA6
:1050400096200AF00BFD01228021204600F0B4FFDB
:105050004FF47A600AF002FD002010BD7448002071
:10506000783E0208000400480020704710B51A4C32
:105070001A49204618F02AF8204612F021FD022194
:1050800083B22246084612F05DFD204612F018FD5C
:10509000022183B22246084612F0A0FF10492046A2
:1050A00018F014F8204612F00BFD224683B20121BD
:1050B000022012F047FD204612F002FD224683B284
:1050C0000121022012F08AFF064800224FF480716D
:1050D00000F072FF002010BD74480020B13E0208AD
:1050E000E73E02080008004810B53149314886B053
:1050F00017F0ECFF2F4812F0E3FC022183B22D4A97
:10510000084612F01FFD2B4812F0DAFC022183B290
:10511000284A084612F062FF272000F0B1FD264819
:1051200002F0CFFC044658B32449224817F0CEFFC2
:10513000204812F0C5FC1F4A83B21021022012F051
:1051400001FD1C4812F0BCFC1A4A83B21021022057
:1051500012F044FF0124FFF73DFD0023CDE90333A6
:105160000593174B17484FF4805201A9CDE901234D
:1051700000F0DEFD282000F075FD204606B010BDD1
:1051800011490C4817F0A2FF0A4812F099FC0221BD
:1051900083B2084A084612F0D5FC064812F090FC8B
:1051A000022183B2034A084612F018FFD3E700BF7A
:1051B0003F3F020874480020BC0C0020933D0208C9
:1051C0000000111000040048C13D020870B50646F9
:1051D00086B052480C46524917F078FF4F4812F0FB
:1051E0006FFC022183B24D4A084612F0ABFC4B48DB
:1051F00012F066FC022183B2484A084612F0EEFE25
:10520000484802F05EFC0546B8B14749434817F0EC
:105210005DFF424812F054FC404A83B21021022044
:1052200012F090FC3D4812F04BFC3C4A83B2102136
:10523000022012F0D3FE01256BE032200AF00EFCB2
:10524000002C3A49374C354825614FF4E133C4E925
:10525000001318BF4FF440724FF00C0308BF002238
:10526000C4E90532003A18BF01223149C4E90255A8
:1052700017F0E4FD294812F023FC284A83B20121EB
:10528000022012F05FFC254812F01AFC234A83B278
:105290000121022012F0A2FE2046C4E907556562F2
:1052A00003F037F80546002836D1A369A3B94FF4B7
:1052B0000053CDE90300059003241E4801A9CDE960
:1052C000013400F035FD04231B4803950DEB030169
:1052D000CDE9013400F02CFDC6B118490F4817F094
:1052E000F5FE0E4812F0ECFB022183B20B4A084691
:1052F00012F028FC094812F0E3FB022183B2074AAE
:10530000084612F06BFE304611F085FE272000F0B3
:10531000A9FC284606B070BD094977E7744800200B
:10532000763F0208BC0C0020933D02080048004074
:105330009A3F020800040048000C0048D73F0208CA
:10534000F83F020830B51F491F48204D87B017F0BD
:10535000BDFE1D4812F0B4FB022183B21A4A084672
:1053600012F0F0FB184812F0ABFB022183B2164A90
:10537000084612F033FE1022002102A817F0D1FDDA
:1053800020231248019301A90223039300F0D0FCCB
:105390000E4801224FF4807100F00EFE40F2F51429
:1053A0002021284600F002FE08B9013C05D1022167
:1053B0000020FFF70BFF07B030BD0A200AF04EFBBC
:1053C000EEE700BF274002087448002000080048AC
:1053D000F0B58BB01446002114220646684617F03B
:1053E000A0FD6449644817F071FE634812F068FB41
:1053F000022183B2604A084612F0A4FB5E4812F014
:105400005FFB02215C4A83B2084612F0E7FD0027E9
:1054100020235A48009369460225CDE9017500F022
:1054200087FC4FF4805356480093694600F080FC97
:10543000282000F025FC012C5ED152494E4817F07F
:1054400045FE4D4812F03CFB214683B24A4A2846AD
:1054500012F078FB484812F033FB474982B22846E5
:1054600012F0D6FD10254548099705A9CDE9055448
:10547000CDE9077700F05CFC224629463F483F4DC6
:1054800000F09AFD40F2F5142021284600F08EFD30
:1054900008B9013C2CD102213046FFF797FE0446A3
:1054A0004FF47A700AF0DAFA344801224FF480712E
:1054B00000F082FDFFF71EFC64200AF0CFFA3249AB
:1054C0002D4817F003FE2C4812F0FAFA022183B29D
:1054D000294A084612F036FB274812F0F1FA022159
:1054E00083B2254A084612F079FD20460BB0F0BD84
:1054F0000A200AF0B3FAC7E724491F4817F0E6FD6F
:105500001D4812F0DDFA1C4A83B20121284612F030
:1055100019FB194812F0D4FA174982B2284612F042
:1055200077FD1648154D01224FF4807100F044FDBF
:1055300040F2E9342021284600F038FD08B9013C4A
:1055400014D130460221FFF741FE0D4E044640F2D1
:10555000DD554FF48051304600F028FD0028A9D1D8
:10556000013DA7D00A200AF079FAF2E70A200AF0F2
:1055700075FADFE75C400208744800200008004824
:105580000004004893400208CE400208B1400208DF
:1055900070B50F4C05460E4620460E4917F096FD95
:1055A000204612F08DFA022183B22246084612F0FC
:1055B000C9FA204612F084FA022183B22246084634
:1055C00012F00CFD31462846BDE87040FFF7FEBDE5
:1055D00074480020F34002080F49D1F8883043F4A2
:1055E0007003C1F888300D4B1A68002042F00102A8
:1055F0001A6098601A6822F0A85222F410221A60E9
:105600004FF48052DA601A6822F480221A6098619E
:105610004FF000638B60704700ED00E00010024027
:1056200010B5032000F0DAFA0020FCF725F8044654
:1056300018B9FBF7DBFF204610BD0124FBE7000093
:10564000034A044B11681B780B441360704700BF7A
:105650002818002004000020014B1868704700BF84
:105660002818002038B50446FFF7F6FF631C1CBF5E
:10567000054B1B78054618BFE418FFF7EDFF431BE9
:10568000A342FAD338BD00BF0400002030B5CC0DD2
:1056900004F004041430C1F30451035907258D406C
:1056A00023EA05038A401343035130BD8068C0F3E9
:1056B0008000704737B5002301930446002800F0AE
:1056C000C080856D25B9FBF76FFCE56584F8545003
:1056D00023689A68910041BF9A6822F0204222F024
:1056E0003F029A609A68D20040F18C809A68D50097
:1056F00000F19D80A26D42F01002A265E26D42F0C1
:105700000102E26501211846FFF7D0FFA26D02F009
:105710001002104340F09180A26D22F4817242F099
:105720000202A2659A68D0070AD4474A9268D20753
:1057300006D446486568826822F47C122A43826057
:10574000E568626B94F820002A43A5682A43657EC9
:10575000012842EA453242EA004202BF606A00F193
:10576000FF3042EA4042A06A20B1E56A00F470705E
:1057700028430243DD68364828401043D860184665
:10578000FFF794FF9A6802F00802104322D194F8C0
:105790003020257ED868520042EA8532E56C20F43C
:1057A00080402A4320F006000243DA6094F8382053
:1057B000012A3ED1D4E90F25186920F4FF6020F0BA
:1057C00004002A430243606C0243A06C024342F08F
:1057D00001021A612269012A05BF186BE2691A6B7E
:1057E00002F1FF3206BF20F00F00024322F00F0249
:1057F0001A63A36D23F0030343F00103A365084676
:1058000003B030BD9A68134922F0104222F03F02E3
:1058100042F080529A60104A1268B2FBF1F2019293
:10582000019A002A3FF462AF019A013AF7E700219A
:1058300069E71A6922F00102CBE7A36D43F0100378
:10584000A3650121DBE700BF000004500003045002
:1058500007C0F0FF400D030000000020F7B5002353
:10586000019390F85430012B05460E4600F09E81BE
:105870000468012380F854302046FFF717FF002802
:1058800040F08E814B68052B09D8023B032B00F2B8
:105890009280DFE803F002898B8D0C2373607268BD
:1058A0003368910901F00C0104F1300702F01F0286
:1058B00078584FF01F0CC3F3846393400CFA02F244
:1058C00020EA020213437B502046FFF7EFFEA26856
:1058D00002F00802024325D1B3683168B3F1004FEA
:1058E0006BD12046FFF7D2FE636943F0004363614A
:1058F00037697169E0683268042F04F1600364D08D
:10590000C0F3C100400053F827C08140A84802F00E
:10591000F8420CEA0000104341EA000242F0004263
:1059200043F82720A2683368D10732D4F768A14A28
:10593000D4F8B01007F0180CC3F3120022FA0CF2DE
:105940001A4021EA00010A43C4F8B0209A4A97425B
:105950001FD1002840F08E809A0E013202F01F07FE
:1059600001219206092F02F0F84201FA07F100F234
:10597000B3801143002840F099809B0E013303F05F
:105980001F0303EB43031B05B26819432046FFF7CF
:105990007DFE3268894B1A4240F0B8800020002317
:1059A00085F8543003B0F0BD122377E7182375E76C
:1059B0004FF4807372E7062370E71A462046FFF71C
:1059C00065FE636923F0004391E7216E216EC2F307
:1059D0001200C1F38461002838D1C2F3846291427D
:1059E00002BF226E22F0004222665A68326859686D
:1059F000C2F31200C1F3846168BBC2F384629142B6
:105A000002BF5A6822F000425A609A683268996868
:105A1000C2F31200C1F3846110BBC2F384629142ED
:105A200002BF9A6822F000429A60DA683268D96848
:105A3000C2F31200C1F38461B8B9C2F38462914227
:105A400002BFDA6822F00042DA606BE792FAA2F253
:105A5000B2FA82F2C3E792FAA2F2B2FA82F2CEE787
:105A600092FAA2F2B2FA82F2D9E792FAA2F2B2FA6A
:105A700082F2E4E793FAA3F232B1B2FA82F201328F
:105A800002F01F02092A16D893FAA3F2B2FA82F2A0
:105A90000132920602F0F84293FAA3F7B7FA87F7B9
:105AA000013707F01F070121B94062E793FAA3F31A
:105AB000B3FA83F362E793FAA3F2B2FA82F2013205
:105AC000920602F0F84293FAA3F7B7FA87F7013784
:105AD00007F01F070121B940114350B99B0E013354
